:100000000C942A000C9447000C9447000C94470071
:100010000C9447000C9447000C9447000C94470044
:100020000C9447000C9447000C9447000C94470034
:100030000C9447000C9447000C9447000C94470024
:100040000C9447000C9447000C9447000C94470014
:100050000C94470011241FBECFE5D8E0DEBFCDBF12
:1000600011E0A0E6B0E0ECE5FFE402C005900D92DF
:10007000A63AB107D9F711E0A6EAB1E001C01D9296
:10008000AD3BB107E1F70E9443150C94AC270C94EB
:100090000000EF92FF920F931F937B018C0120E0F1
:1000A00030E040E05FE40E94490388238CF0C801FF
:1000B000B70120E030E040E05FE40E94C1010E940F
:1000C000A9039B01AC01205030404040504806C07D
:1000D000C801B7010E94A9039B01AC01B901CA0183
:1000E0001F910F91FF90EF900895A0E0B0E0EBE733
:1000F000F0E00C944427DC012B01FA019C91923032
:1001000008F439C1EB018881823008F433C194309E
:1001100069F4843009F02FC111969C91119789815F
:10012000981709F428C1A9E9B1E025C1843009F480
:1001300021C18230A9F4923009F01DC19A01AD01AC
:1001400088E0EA010990AE01E90109929E0181501F
:10015000C1F7E201898111969C918923818308C1AD
:10016000923009F407C112962D903C901397EB0141
:100170008A819B811496AD90BD90CD90DC901797AD
:10018000EC80FD800E811F819101281B390BB90184
:1001900037FF04C066277727621B730B6032710537
:1001A0000CF061C0121613066CF537014801062EDB
:1001B00004C096948794779467940A94D2F721E0C8
:1001C00030E040E050E004C0220F331F441F551FB1
:1001D0006A95D2F721503040404050402E213F21B7
:1001E00040235123211531054105510521F021E01E
:1001F00030E040E050E079018A01E628F72808293C
:1002000019293CC0232BD1F1260E371E350146019A
:10021000062E04C096948794779467940A94D2F734
:1002200021E030E040E050E004C0220F331F441FC3
:10023000551F6A95D2F721503040404050402A2146
:100240003B214C215D21211531054105510521F04E
:1002500021E030E040E050E059016A01A628B728CB
:10026000C828D9280BC0821593052CF01C01AA249C
:10027000BB24650103C0EE24FF24870111969C91E5
:10028000D20111968C91981709F445C0992339F041
:10029000A80197012A193B094C095D0906C0A6016E
:1002A00095012E193F09400B510B57FD08C01182D3
:1002B0003382228224833583468357831DC081E0A5
:1002C00081833382228288279927DC01821B930B4A
:1002D000A40BB50B84839583A683B7830DC0220F2F
:1002E000331F441F551F24833583468357838281E0
:1002F000938101979383828324813581468157813D
:10030000DA01C9010197A109B1098F5F9F4FAF4F72
:10031000BF4328F30BC0918333822282EA0CFB1C7B
:100320000C1D1D1DE482F5820683178383E0808304
:10033000248135814681578157FF1AC0C901AA27F8
:1003400097FDA095BA2F81709070A070B0705695EF
:10035000479537952795822B932BA42BB52B848318
:100360009583A683B7838281938101969383828349
:10037000DF0101C0D201CD01CDB7DEB7E2E10C94BF
:100380006027A0E2B0E0E7ECF1E00C94502769832D
:100390007A838B839C832D833E834F835887E9E048
:1003A000EE2EF12CEC0EFD1ECE010196B7010E943F
:1003B000D2048E010F5E1F4FCE010596B8010E9438
:1003C000D2048A8991E089278A8BC701B801AE01DE
:1003D000475E5F4F0E9475000E94FD03A096E6E015
:1003E0000C946C27A0E2B0E0E8EFF1E00C94502709
:1003F00069837A838B839C832D833E834F835887C5
:10040000F9E0EF2EF12CEC0EFD1ECE010196B701A6
:100410000E94D2048E010F5E1F4FCE010596B801D7
:100420000E94D204C701B801AE01475E5F4F0E942F
:1004300075000E94FD03A096E6E00C946C27A0E2F4
:10044000B0E0E5E2F2E00C94442769837A838B8381
:100450009C832D833E834F835887CE010196BE0136
:10046000675F7F4F0E94D204CE010596BE016F5E8A
:100470007F4F0E94D2049985923088F0898982301A
:10048000C8F0943019F4823051F404C0843029F457
:10049000923081F489E991E0C6C0923049F420E0BD
:1004A0009A858A89981321E02A87CE010996BBC0D4
:1004B000823049F420E09A858A89981321E02A8BBA
:1004C000CE014196B0C02D843E844F8458886D88FB
:1004D0007E888F88988CEE24FF248701AA24BB2471
:1004E000650140E050E060E070E0E0E0F0E0C10174
:1004F00081709070892BE9F0E60CF71C081D191D1E
:100500009A01AB012A0D3B1D4C1D5D1D80E090E062
:10051000A0E0B0E0E614F7040805190520F481E036
:1005200090E0A0E0B0E0BA01A901480F591F6A1F8E
:100530007B1FAA0CBB1CCC1CDD1C97FE08C081E0F5
:1005400090E0A0E0B0E0A82AB92ACA2ADB2A3196B6
:10055000E032F10549F0660C771C881C991C569412
:10056000479437942794C3CFFA85EA892B893C892D
:100570008B859C85280F391F2E5F3F4F17C0CA01FE
:1005800081709070892B61F016950795F794E79428
:1005900080E090E0A0E0B0E8E82AF92A0A2B1B2BC3
:1005A00076956795579547952F5F3F4F77FDE7CF36
:1005B0000CC0440F551F661F771F17FD4160EE0CDE
:1005C000FF1C001F111F21503040403090E05907A0
:1005D00090E0690790E4790760F32B8F3C8FDB0193
:1005E000CA018F779070A070B07080349105A1051A
:1005F000B10561F447FD0AC0E114F10401051105DC
:1006000029F0405C5F4F6F4F7F4F40781A8EFE1786
:1006100011F081E08A8F4D8F5E8F6F8F78A383E01A
:10062000898FCE0149960E94FD03A096E2E10C94C9
:100630006027A8E1B0E0EFE1F3E00C945027698374
:100640007A838B839C832D833E834F83588789E0F5
:10065000E82EF12CEC0EFD1ECE010196B7010E9492
:10066000D2048E010F5E1F4FCE010596B8010E9485
:10067000D2048985823040F08989823028F0C70110
:10068000B8010E944A0501C08FEF6896E6E00C941D
:100690006C27A8E1B0E0EFE4F3E00C945027698305
:1006A0007A838B839C832D833E834F83588789E095
:1006B000E82EF12CEC0EFD1ECE010196B7010E9432
:1006C000D2048E010F5E1F4FCE010596B8010E9425
:1006D000D2048985823040F08989823028F0C701B0
:1006E000B8010E944A0501C08FEF6896E6E00C94BD
:1006F0006C27A8E1B0E0EFE7F3E00C9450276983A2
:100700007A838B839C832D833E834F83588789E034
:10071000E82EF12CEC0EFD1ECE010196B7010E94D1
:10072000D2048E010F5E1F4FCE010596B8010E94C4
:10073000D2048985823040F08989823028F0C7014F
:10074000B8010E944A0501C081E06896E6E00C9479
:100750006C27ACE0B0E0EFEAF3E00C945427698337
:100760007A838B839C83CE010196BE016B5F7F4FA2
:100770000E94D2048D81823061F1823050F1843048
:1007800021F48E81882351F12EC02F81388537FDC9
:1007900020C06E812F3131051CF06623F9F023C093
:1007A0008EE190E0821B930B29853A854B855C8511
:1007B00004C056954795379527958A95D2F76623B5
:1007C000B1F050954095309521953F4F4F4F5F4F79
:1007D0000EC020E030E040E050E009C02FEF3FEFD6
:1007E0004FEF5FE704C020E030E040E050E8B9019F
:1007F000CA012C96E2E00C947027DF92EF92FF92F0
:100800000F931F93FC01E480F58006811781D1804E
:100810008081823048F480E090E0A0E1B0E0E82AF6
:10082000F92A0A2B1B2BA5C0843009F49FC0823003
:1008300021F4EE24FF24870105C0E114F104010531
:10084000110519F4E0E0F0E096C0628173819FEF3A
:10085000623879070CF05BC022E83FEF261B370BAC
:100860002A3131052CF020E030E040E050E02AC091
:10087000B801A701022E04C0769567955795479554
:100880000A94D2F781E090E0A0E0B0E004C0880FC5
:10089000991FAA1FBB1F2A95D2F70197A109B10979
:1008A0008E219F21A023B1230097A105B10521F03E
:1008B00081E090E0A0E0B0E09A01AB01282B392B59
:1008C0004A2B5B2BDA01C9018F779070A070B07052
:1008D00080349105A105B10539F427FF09C0205CDA
:1008E0003F4F4F4F5F4F04C0215C3F4F4F4F5F4F13
:1008F000E0E0F0E02030A0E03A07A0E04A07A0E402
:100900005A0710F0E1E0F0E079018A0127C0603871
:10091000710564F5FB01E158FF4FD801C7018F77DE
:100920009070A070B07080349105A105B10539F4C4
:10093000E7FE0DC080E490E0A0E0B0E004C08FE3EB
:1009400090E0A0E0B0E0E80EF91E0A1F1B1F17FFA1
:1009500005C016950795F794E794319687E01695AC
:100960000795F794E7948A95D1F705C0EE24FF2404
:100970008701EFEFF0E06E2F679566276795902F60
:100980009F77D794DD24D7948E2F8695492F462BB9
:10099000582F5D29B701CA011F910F91FF90EF9069
:1009A000DF900895FC01DB01408151812281622F9B
:1009B0006F7770E0221F2227221F9381892F880FD3
:1009C000822B282F30E0991F9927991F11969C930D
:1009D000119721153105A9F54115510561057105DD
:1009E00011F482E037C082E89FEF13969C938E93B8
:1009F00012979A01AB0167E0220F331F441F551F66
:100A00006A95D1F783E08C930DC0220F331F441FEA
:100A1000551F12968D919C911397019713969C9355
:100A20008E931297203080E0380780E0480780E4FA
:100A3000580758F314962D933D934D935C93179755
:100A400008952F3F310579F4411551056105710570
:100A500019F484E08C93089564FF03C081E08C93C3
:100A600012C01C9210C02F57304013963C932E9307
:100A7000129783E08C9387E0440F551F661F771F02
:100A80008A95D1F7706414964D935D936D937C9322
:100A9000179708951F93DC01FB019C91923008F495
:100AA00047C08081823008F443C0943051F41196DD
:100AB0001C91843099F58181682F70E0611B710968
:100AC0003FC0843021F0923031F48230B9F181811D
:100AD000882389F12DC011961C9111978230F1F075
:100AE00081811817D9F412962D913C911397828128
:100AF00093818217930794F028173907BCF0149656
:100B00008D919D910D90BC91A02D248135814681C0
:100B10005781281739074A075B0718F4112341F05A
:100B20000AC082179307A407B50740F4112319F0F0
:100B300061E070E005C06FEF7FEF02C060E070E041
:100B4000CB011F910895DF93CF9300D000D00F9277
:100B5000CDB7DEB789836A834B838981282F30E044
:100B60003D832C838C819D818230910509F472C074
:100B70002C813D812330310534F48C819D8181307D
:100B8000910571F073C12C813D812330310509F449
:100B9000BBC08C819D818430910509F40FC166C171
:100BA0008B818823A9F4AAE3B0E0EAE3F0E0808136
:100BB000482F8A81282F30E081E090E0022E02C089
:100BC000880F991F0A94E2F7809584238C934EC175
:100BD0008B818130A1F4AAE3B0E0EAE3F0E0808108
:100BE000482F8A81282F30E081E090E0022E02C059
:100BF000880F991F0A94E2F7842B8C9337C18B815D
:100C0000823009F033C1AAE3B0E0EAE3F0E080818A
:100C1000482F8A81282F30E081E090E002C0880FC1
:100C2000991F2A95E2F7809584238C93ABE3B0E07B
:100C3000EBE3F0E08081482F8A81282F30E081E0CB
:100C400090E0022E02C0880F991F0A94E2F7842BCD
:100C50008C930CC18B818823A9F4A7E3B0E0E7E370
:100C6000F0E08081482F8A81282F30E081E090E0F9
:100C7000022E02C0880F991F0A94E2F78095842300
:100C80008C93F4C08B818130A1F4A7E3B0E0E7E35B
:100C9000F0E08081482F8A81282F30E081E090E0C9
:100CA000022E02C0880F991F0A94E2F7842B8C93BE
:100CB000DDC08B81823009F0D9C0A7E3B0E0E7E363
:100CC000F0E08081482F8A81282F30E081E090E099
:100CD00002C0880F991F2A95E2F7809584238C9390
:100CE000A8E3B0E0E8E3F0E08081482F8A81282F74
:100CF00030E081E090E0022E02C0880F991F0A9434
:100D0000E2F7842B8C93B2C08B818823A9F4A4E3EF
:100D1000B0E0E4E3F0E08081482F8A81282F30E0C2
:100D200081E090E0022E02C0880F991F0A94E2F73A
:100D3000809584238C939AC08B818130A1F4A4E3A5
:100D4000B0E0E4E3F0E08081482F8A81282F30E092
:100D500081E090E0022E02C0880F991F0A94E2F70A
:100D6000842B8C9383C08B81823009F07FC0A4E3F5
:100D7000B0E0E4E3F0E08081482F8A81282F30E062
:100D800081E090E002C0880F991F2A95E2F78095D4
:100D900084238C93A5E3B0E0E5E3F0E08081482F65
:100DA0008A81282F30E081E090E0022E02C0880F77
:100DB000991F0A94E2F7842B8C9358C08B81882367
:100DC000A9F4A1E3B0E0E1E3F0E08081482F8A815B
:100DD000282F30E081E090E0022E02C0880F991F9A
:100DE0000A94E2F7809584238C9340C08B818130F4
:100DF000A1F4A1E3B0E0E1E3F0E08081482F8A8133
:100E0000282F30E081E090E0022E02C0880F991F69
:100E10000A94E2F7842B8C9329C08B81823031F5C0
:100E2000A1E3B0E0E1E3F0E08081482F8A81282F40
:100E300030E081E090E002C0880F991F2A95E2F728
:100E4000809584238C93A2E3B0E0E2E3F0E080811C
:100E5000482F8A81282F30E081E090E0022E02C0E6
:100E6000880F991F0A94E2F7842B8C930F900F90B0
:100E70000F900F900F90CF91DF910895DF93CF9354
:100E800000D000D0CDB7DEB789836A838981282F4F
:100E900030E03C832B838B819C8182309105D9F09B
:100EA0002B813C812330310534F48B819C8181304E
:100EB000910561F01EC02B813C812330310581F00A
:100EC0008B819C818430910581F013C0EAE3F0E0CE
:100ED0008A8180830EC0E7E3F0E08A81808309C0C5
:100EE000E4E3F0E08A81808304C0E1E3F0E08A81FA
:100EF00080830F900F900F900F90CF91DF91089506
:100F0000DF93CF9300D000D0CDB7DEB789836A835B
:100F10008981282F30E03C832B838B819C81823018
:100F2000910591F12B813C812330310534F48B8183
:100F30009C818130910569F074C02B813C81233004
:100F40003105E1F18B819C818430910509F450C019
:100F500068C08A81882321F4EAE3F0E0108261C04E
:100F60008A81813029F4EAE3F0E08FEF808359C071
:100F70008A81823009F055C0EAE3F0E01082EBE3A9
:100F8000F0E08FEF80834DC08A81882321F4E7E36E
:100F9000F0E0108246C08A81813029F4E7E3F0E076
:100FA0008FEF80833EC08A818230D9F5E7E3F0E09D
:100FB0001082E8E3F0E08FEF808333C08A818823DA
:100FC00021F4E4E3F0E010822CC08A81813029F41E
:100FD000E4E3F0E08FEF808324C08A81823009F55A
:100FE000E4E3F0E01082E5E3F0E08FEF808319C0E6
:100FF0008A81882321F4E1E3F0E0108212C08A8123
:10100000813029F4E1E3F0E08FEF80830AC08A8128
:10101000823039F4E1E3F0E01082E2E3F0E08FEFB8
:1010200080830F900F900F900F90CF91DF910895D4
:10103000DF93CF9300D000D00F92CDB7DEB7898376
:101040006A834B838981282F30E03D832C838C81F8
:101050009D818230910509F448C02C813D81233067
:10106000310534F48C819D818130910571F0CBC0C4
:101070002C813D812330310509F467C08C819D812D
:101080008430910509F491C0BEC08B818823A9F4F6
:10109000ABE3B0E0EBE3F0E08081482F8A81282FBA
:1010A00030E081E090E0022E02C0880F991F0A9480
:1010B000E2F7809584238C93A6C08B81813009F060
:1010C000A2C0ABE3B0E0EBE3F0E08081482F8A817F
:1010D000282F30E081E090E0022E02C0880F991F97
:1010E0000A94E2F7842B8C938EC08B818823A9F419
:1010F000A8E3B0E0E8E3F0E08081482F8A81282F60
:1011000030E081E090E0022E02C0880F991F0A941F
:10111000E2F7809584238C9376C08B81813009F02F
:1011200072C0A8E3B0E0E8E3F0E08081482F8A8154
:10113000282F30E081E090E0022E02C0880F991F36
:101140000A94E2F7842B8C935EC08B818823A9F4E8
:10115000A5E3B0E0E5E3F0E08081482F8A81282F05
:1011600030E081E090E0022E02C0880F991F0A94BF
:10117000E2F7809584238C9346C08B81813009F0FF
:1011800042C0A5E3B0E0E5E3F0E08081482F8A812A
:10119000282F30E081E090E0022E02C0880F991FD6
:1011A0000A94E2F7842B8C932EC08B818823A9F4B8
:1011B000A2E3B0E0E2E3F0E08081482F8A81282FAB
:1011C00030E081E090E0022E02C0880F991F0A945F
:1011D000E2F7809584238C9316C08B81813099F43B
:1011E000A2E3B0E0E2E3F0E08081482F8A81282F7B
:1011F00030E081E090E0022E02C0880F991F0A942F
:10120000E2F7842B8C930F900F900F900F900F901C
:10121000CF91DF910895DF93CF9300D000D0CDB769
:10122000DEB789836A838981282F30E03C832B8352
:101230008B819C8182309105D9F02B813C812330B8
:10124000310534F48B819C818130910561F01EC0A1
:101250002B813C812330310581F08B819C8184304E
:10126000910581F013C0EBE3F0E08A8180830EC02A
:10127000E8E3F0E08A81808309C0E5E3F0E08A8159
:10128000808304C0E2E3F0E08A8180830F900F90B6
:101290000F900F90CF91DF910895DF93CF9300D0FF
:1012A00000D00F92CDB7DEB78A836B838A81282F57
:1012B00030E03D832C838C819D8182309105D9F073
:1012C0002C813D812330310534F48C819D81813026
:1012D000910561F01EC02C813D812330310581F0E4
:1012E0008C819D818430910581F013C0E9E3F0E0A9
:1012F000808189830EC0E6E3F0E08081898309C0A4
:10130000E3E3F0E08081898304C0E0E3F0E08081E2
:10131000898389810F900F900F900F900F90CF913C
:10132000DF910895DF93CF9300D000D0CDB7DEB723
:101330008A838A81282F30E03C832B838B819C8198
:1013400082309105D9F02B813C812330310534F472
:101350008B819C818130910561F01EC02B813C8185
:101360002330310581F08B819C818430910581F09F
:1013700013C0E9E3F0E0808189830EC0E6E3F0E08A
:101380008081898309C0E3E3F0E08081898304C020
:10139000E0E3F0E08081898389810F900F900F90C6
:1013A0000F90CF91DF910895DF93CF93CDB7DEB744
:1013B00027970FB6F894DEBF0FBECDBF89836A832F
:1013C0004B838B81882309F074C08981282F30E0FA
:1013D0003F832E838E819F818130910559F12E812B
:1013E0003F81223031052CF48E819F81009769F076
:1013F000D2C02E813F812230310589F18E819F81BB
:101400008330910509F440C0C6C0AAE3B0E0EAE326
:10141000F0E08081482F8A81282F30E081E090E041
:10142000022E02C0880F991F0A94E2F78095842348
:101430008C93B1C0A7E3B0E0E7E3F0E08081482FF0
:101440008A81282F30E081E090E0022E02C0880FD0
:10145000991F0A94E2F7809584238C939CC0A4E39F
:10146000B0E0E4E3F0E08081482F8A81282F30E06B
:1014700081E090E0022E02C0880F991F0A94E2F7E3
:10148000809584238C9387C0A1E3B0E0E1E3F0E092
:101490008081482F8A81282F30E081E090E0022E61
:1014A00002C0880F991F0A94E2F7809584238C93D9
:1014B00072C08B81813009F06EC08981282F30E0A5
:1014C0003D832C838C819D818130910549F12C8154
:1014D0003D81223031052CF48C819D81009761F093
:1014E0005AC02C813D812230310571F18C819D8162
:1014F00083309105E9F14FC0AAE3B0E0EAE3F0E000
:101500008081482F8A81282F30E081E090E0022EF0
:1015100002C0880F991F0A94E2F7842B8C933BC07A
:10152000A7E3B0E0E7E3F0E08081482F8A81282F2D
:1015300030E081E090E0022E02C0880F991F0A94EB
:10154000E2F7842B8C9327C0A4E3B0E0E4E3F0E05F
:101550008081482F8A81282F30E081E090E0022EA0
:1015600002C0880F991F0A94E2F7842B8C9313C052
:10157000A1E3B0E0E1E3F0E08081482F8A81282FE9
:1015800030E081E090E0022E02C0880F991F0A949B
:10159000E2F7842B8C9327960FB6F894DEBF0FBE2C
:1015A000CDBFCF91DF910895DF93CF93CDB7DEB755
:1015B00027970FB6F894DEBF0FBECDBF89836A832D
:1015C0004B838B81882309F073C08981282F30E0F9
:1015D0003F832E838E819F818130910559F12E8129
:1015E0003F81223031052CF48E819F81009769F074
:1015F0005FC02E813F812230310589F18E819F812C
:101600008330910509F440C053C0ABE3B0E0EBE395
:10161000F0E08081482F8A81282F30E081E090E03F
:10162000022E02C0880F991F0A94E2F78095842346
:101630008C933EC0A8E3B0E0E8E3F0E08081482F5F
:101640008A81282F30E081E090E0022E02C0880FCE
:10165000991F0A94E2F7809584238C9329C0A5E30F
:10166000B0E0E5E3F0E08081482F8A81282F30E068
:1016700081E090E0022E02C0880F991F0A94E2F7E1
:10168000809584238C9314C0A2E3B0E0E2E3F0E001
:101690008081482F8A81282F30E081E090E0022E5F
:1016A00002C0880F991F0A94E2F7809584238C93D7
:1016B0008B81813009F06EC08981282F30E03D8315
:1016C0002C838C819D818130910549F12C813D8154
:1016D000223031052CF48C819D81009761F05AC035
:1016E0002C813D812230310571F18C819D818330C7
:1016F0009105E9F14FC0ABE3B0E0EBE3F0E08081AE
:10170000482F8A81282F30E081E090E0022E02C02D
:10171000880F991F0A94E2F7842B8C933BC0A8E3AF
:10172000B0E0E8E3F0E08081482F8A81282F30E0A4
:1017300081E090E0022E02C0880F991F0A94E2F720
:10174000842B8C9327C0A5E3B0E0E5E3F0E0808133
:10175000482F8A81282F30E081E090E0022E02C0DD
:10176000880F991F0A94E2F7842B8C9313C0A2E38D
:10177000B0E0E2E3F0E08081482F8A81282F30E05A
:1017800081E090E0022E02C0880F991F0A94E2F7D0
:10179000842B8C9327960FB6F894DEBF0FBECDBF77
:1017A000CF91DF910895DF93CF9300D000D000D088
:1017B000CDB7DEB789836A838A81882371F58981F1
:1017C000282F30E03E832D838D819E8181309105CD
:1017D000C9F02D813E81223031052CF48D819E810E
:1017E000009761F01AC02D813E812230310571F0E1
:1017F0008D819E818330910569F00FC0EAE3F0E0AE
:1018000010820BC0E7E3F0E0108207C0E4E3F0E0F1
:10181000108203C0E1E3F0E010828A81813091F50B
:101820008981282F30E03C832B838B819C81813000
:101830009105D1F02B813C81223031052CF48B8134
:101840009C81009761F01EC02B813C8122303105C4
:1018500081F08B819C818330910581F013C0EAE394
:10186000F0E08FEF80830EC0E7E3F0E08FEF80833E
:1018700009C0E4E3F0E08FEF808304C0E1E3F0E02F
:101880008FEF808326960FB6F894DEBF0FBECDBFD4
:10189000CF91DF910895DF93CF9300D000D000D097
:1018A000CDB7DEB789836A838A81882371F5898100
:1018B000282F30E03E832D838D819E8181309105DC
:1018C000C9F02D813E81223031052CF48D819E811D
:1018D000009761F01AC02D813E812230310571F0F0
:1018E0008D819E818330910569F00FC0EBE3F0E0BC
:1018F00010820BC0E8E3F0E0108207C0E5E3F0E0FF
:10190000108203C0E2E3F0E010828A81813091F519
:101910008981282F30E03C832B838B819C8181300F
:101920009105D1F02B813C81223031052CF48B8143
:101930009C81009761F01EC02B813C8122303105D3
:1019400081F08B819C818330910581F013C0EBE3A2
:10195000F0E08FEF80830EC0E8E3F0E08FEF80834C
:1019600009C0E5E3F0E08FEF808304C0E2E3F0E03C
:101970008FEF808326960FB6F894DEBF0FBECDBFE3
:10198000CF91DF910895DF93CF9300D000D0CDB7F2
:10199000DEB789836A838981282F30E03C832B83DB
:1019A0008B819C818130910549F12B813C812230D2
:1019B00031052CF48B819C81009761F05AC02B81FA
:1019C0003C812230310571F18B819C8183309105FE
:1019D000E9F14FC0ABE3B0E0EBE3F0E08081482FEA
:1019E0008A81282F30E081E090E0022E02C0880F2B
:1019F000991F0A94E2F784278C933BC0A8E3B0E0D8
:101A0000E8E3F0E08081482F8A81282F30E081E0F0
:101A100090E0022E02C0880F991F0A94E2F78427F3
:101A20008C9327C0A5E3B0E0E5E3F0E08081482F88
:101A30008A81282F30E081E090E0022E02C0880FDA
:101A4000991F0A94E2F784278C9313C0A2E3B0E0B5
:101A5000E2E3F0E08081482F8A81282F30E081E0A6
:101A600090E0022E02C0880F991F0A94E2F78427A3
:101A70008C930F900F900F900F90CF91DF9108955E
:101A8000DF93CF93CDB7DEB72B970FB6F894DEBFB9
:101A90000FBECDBF89836A834B838A81813009F071
:101AA00085C08B81813009F03EC08981282F30E0CC
:101AB0003B872A878A859B8581309105E9F02A85B5
:101AC0003B85223031052CF48A859B85009761F097
:101AD0002AC02A853B8522303105B1F08A859B8555
:101AE00083309105C9F01FC0AAE3B0E0EAE3F0E05B
:101AF0008081806F8C9317C0A7E3B0E0E7E3F0E04C
:101B00008081806F8C930FC0A4E3B0E0E4E3F0E049
:101B10008081806F8C9307C0A1E3B0E0E1E3F0E047
:101B20008081806F8C938B81882309F0C7C0898165
:101B3000282F30E03987288788859985813091055D
:101B4000E9F028853985223031052CF4888599857E
:101B5000009761F0B3C02885398522303105B1F096
:101B60008885998583309105C9F0A8C0AAE3B0E0C3
:101B7000EAE3F0E080818F708C93A0C0A7E3B0E02F
:101B8000E7E3F0E080818F708C9398C0A4E3B0E02D
:101B9000E4E3F0E080818F708C9390C0A1E3B0E02B
:101BA000E1E3F0E080818F708C9388C08A81882384
:101BB00009F084C08B81813009F03EC08981282FD3
:101BC00030E03F832E838E819F8181309105E9F043
:101BD0002E813F81223031052CF48E819F81009728
:101BE00061F02AC02E813F8122303105B1F08E8113
:101BF0009F8183309105C9F01FC0AAE3B0E0EAE3FA
:101C0000F0E080818F608C9317C0A7E3B0E0E7E33A
:101C1000F0E080818F608C930FC0A4E3B0E0E4E338
:101C2000F0E080818F608C9307C0A1E3B0E0E1E336
:101C3000F0E080818F608C938B81882309F03EC017
:101C40008981282F30E03D832C838C819D818130D8
:101C50009105E9F02C813D81223031052CF48C81F5
:101C60009D81009761F02AC02C813D812230310591
:101C7000B1F08C819D8183309105C9F01FC0AAE32A
:101C8000B0E0EAE3F0E08081807F8C9317C0A7E3A7
:101C9000B0E0E7E3F0E08081807F8C930FC0A4E3A5
:101CA000B0E0E4E3F0E08081807F8C9307C0A1E3A3
:101CB000B0E0E1E3F0E08081807F8C932B960FB65B
:101CC000F894DEBF0FBECDBFCF91DF910895DF93B3
:101CD000CF93CDB7DEB72B970FB6F894DEBF0FBE0C
:101CE000CDBF89836A834B838A81813009F085C0A7
:101CF0008B81813009F03EC08981282F30E03B87FD
:101D00002A878A859B8581309105E9F02A853B8564
:101D1000223031052CF48A859B85009761F02AC01A
:101D20002A853B8522303105B1F08A859B85833039
:101D30009105C9F01FC0ABE3B0E0EBE3F0E08081B8
:101D4000806F8C9317C0A8E3B0E0E8E3F0E08081F7
:101D5000806F8C930FC0A5E3B0E0E5E3F0E08081F5
:101D6000806F8C9307C0A2E3B0E0E2E3F0E08081F3
:101D7000806F8C938B81882309F0C7C08981282FBD
:101D800030E0398728878885998581309105E9F089
:101D900028853985223031052CF48885998500976E
:101DA00061F0B3C02885398522303105B1F08885CE
:101DB000998583309105C9F0A8C0ABE3B0E0EBE3AF
:101DC000F0E080818F708C93A0C0A8E3B0E0E8E3DE
:101DD000F0E080818F708C9398C0A5E3B0E0E5E3DC
:101DE000F0E080818F708C9390C0A2E3B0E0E2E3DA
:101DF000F0E080818F708C9388C08A81882309F0FD
:101E000084C08B81813009F03EC08981282F30E069
:101E10003F832E838E819F8181309105E9F02E8151
:101E20003F81223031052CF48E819F81009761F033
:101E30002AC02E813F8122303105B1F08E819F81F1
:101E400083309105C9F01FC0ABE3B0E0EBE3F0E0F5
:101E500080818F608C9317C0A8E3B0E0E8E3F0E0E6
:101E600080818F608C930FC0A5E3B0E0E5E3F0E0E4
:101E700080818F608C9307C0A2E3B0E0E2E3F0E0E2
:101E800080818F608C938B81882309F03EC089818B
:101E9000282F30E03D832C838C819D8181309105FA
:101EA000E9F02C813D81223031052CF48C819D811B
:101EB000009761F02AC02C813D8122303105B1F0BC
:101EC0008C819D8183309105C9F01FC0ABE3B0E0E8
:101ED000EBE3F0E08081807F8C9317C0A8E3B0E053
:101EE000E8E3F0E08081807F8C930FC0A5E3B0E051
:101EF000E5E3F0E08081807F8C9307C0A2E3B0E04F
:101F0000E2E3F0E08081807F8C932B960FB6F8940B
:101F1000DEBF0FBECDBFCF91DF910895DF93CF938A
:101F200000D000D0CDB7DEB789836A838981282F9E
:101F300030E03C832B838B819C8181309105D1F0F3
:101F40002B813C81223031052CF48B819C810097C0
:101F500061F01EC02B813C812230310581F08B81E4
:101F60009C818330910581F013C0EBE3F0E08A811E
:101F700080830EC0E8E3F0E08A81808309C0E5E356
:101F8000F0E08A81808304C0E2E3F0E08A8180830C
:101F90000F900F900F900F90CF91DF910895DF93E6
:101FA000CF93CDB7DEB727970FB6F894DEBF0FBE3D
:101FB000CDBF89836A834B838A81813009F07CC0DD
:101FC0008981282F30E03F832E838E819F8181304D
:101FD000910569F12E813F81223031052CF48E81EB
:101FE0009F81009769F0E7C02E813F812230310543
:101FF000A9F18E819F818330910509F446C0DBC031
:102000008B81807F8B83ABE3B0E0EBE3F0E09081EA
:102010008B81892B8C938B818F608B83ABE3B0E0BA
:10202000EBE3F0E090818B8189238C93C4C08B819A
:10203000807F8B83A8E3B0E0E8E3F0E090818B81C0
:10204000892B8C938B818F608B83A8E3B0E0E8E3CE
:10205000F0E090818B8189238C93ADC08B81807F50
:102060008B83A5E3B0E0E5E3F0E090818B81892BE1
:102070008C938B818F608B83A5E3B0E0E5E3F0E088
:1020800090818B8189238C9396C08B81807F8B83F9
:10209000A2E3B0E0E2E3F0E090818B81892B8C93A6
:1020A0008B818F608B83A2E3B0E0E2E3F0E090816C
:1020B0008B8189238C937FC08A81882309F07BC020
:1020C0008981282F30E03D832C838C819D81813054
:1020D000910569F12C813D81223031052CF48C81F0
:1020E0009D81009769F067C02C813D8122303105C8
:1020F000A9F18C819D818330910509F446C05BC0B4
:102100008B818F708B83ABE3B0E0EBE3F0E09081E9
:102110008B81892B8C938B81806F8B83ABE3B0E0B9
:10212000EBE3F0E090818B8189238C9344C08B8119
:102130008F708B83A8E3B0E0E8E3F0E090818B81BF
:10214000892B8C938B81806F8B83A8E3B0E0E8E3CD
:10215000F0E090818B8189238C932DC08B818F70CF
:102160008B83A5E3B0E0E5E3F0E090818B81892BE0
:102170008C938B81806F8B83A5E3B0E0E5E3F0E087
:1021800090818B8189238C9316C08B818F708B8378
:10219000A2E3B0E0E2E3F0E090818B81892B8C93A5
:1021A0008B81806F8B83A2E3B0E0E2E3F0E090816B
:1021B0008B8189238C9327960FB6F894DEBF0FBED0
:1021C000CDBFCF91DF910895DF93CF9300D000D0A2
:1021D0000F92CDB7DEB78A836B8319828A81282F4D
:1021E00030E03D832C838C819D818130910539F1D4
:1021F0002C813D81223031052CF48C819D8100970A
:1022000061F052C02C813D812230310551F18C8129
:102210009D8183309105B9F147C0E9E3F0E0808109
:10222000482F8B81282F30E081E090E0022E02C001
:10223000880F991F0A94E2F78423898335C0E6E367
:10224000F0E08081482F8B81282F30E081E090E002
:10225000022E02C0880F991F0A94E2F78423898313
:1022600023C0E3E3F0E08081482F8B81282F30E00A
:1022700081E090E0022E02C0880F991F0A94E2F7D5
:102280008423898311C0E0E3F0E08081482F8B81B3
:10229000282F30E081E090E0022E02C0880F991FC5
:1022A0000A94E2F78423898389810F900F900F901D
:1022B0000F900F90CF91DF910895DF93CF93CDB71B
:1022C000DEB72E970FB6F894DEBF0FBECDBF84E009
:1022D00061E00E94800783E065E041E00E94A30581
:1022E00083E066E041E00E94A30583E067E041E00F
:1022F0000E94A30580E090E0A8E4B2E48B879C876D
:10230000AD87BE876B857C858D859E8520E030E01E
:102310004AEF54E40E941F02DC01CB018F839887AF
:10232000A987BA876F81788589859A8520E030E012
:1023300040E85FE30E94790388232CF481E090E079
:102340009E838D833FC06F81788589859A8520E043
:102350003FEF4FE757E40E94190318164CF56B85C1
:102360007C858D859E8520E030E040E251E40E942E
:102370001F02DC01CB01BC01CD010E944900DC0140
:10238000CB019E838D830FC088EC90E09C838B8370
:102390008B819C810197F1F79C838B838D819E813A
:1023A00001979E838D838D819E81009769F714C06C
:1023B0006F81788589859A850E944900DC01CB016F
:1023C0009E838D838D819E819A83898389819A8161
:1023D0000197F1F79A83898388E30E9404128CE0C5
:1023E0000E94041286E00E94041281E00E940412FE
:1023F00080E80E9404122E960FB6F894DEBF0FBE3E
:10240000CDBFCF91DF910895DF93CF93CDB7DEB7E6
:10241000AB970FB6F894DEBF0FBECDBF8BA783E09E
:1024200065E041E00E94180883E067E040E00E9418
:10243000180883E066E040E00E94180884E06BA57D
:102440000E940B0980E090E0A0E8BFE38FA398A76B
:10245000A9A7BAA76FA178A589A59AA520E030E021
:102460004AEF54E40E941F02DC01CB018BA39CA322
:10247000ADA3BEA36BA17CA18DA19EA120E030E005
:1024800040E85FE30E94790388232CF481E090E028
:102490009AA389A33FC06BA17CA18DA19EA120E03E
:1024A0003FEF4FE757E40E94190318164CF56FA150
:1024B00078A589A59AA520E030E040E251E40E9489
:1024C0001F02DC01CB01BC01CD010E944900DC01EF
:1024D000CB019AA389A30FC088EC90E098A38F8FBB
:1024E0008F8D98A10197F1F798A38F8F89A19AA159
:1024F00001979AA389A389A19AA1009769F714C0AB
:102500006BA17CA18DA19EA10E944900DC01CB01A1
:102510009AA389A389A19AA19E8F8D8F8D8D9E8D5F
:102520000197F1F79E8F8D8F83E065E040E00E9478
:10253000180880E090E0A0EAB0E4898F9A8FAB8F12
:10254000BC8F698D7A8D8B8D9C8D20E030E04AEFB9
:1025500054E40E941F02DC01CB018D8B9E8BAF8B5C
:10256000B88F6D897E898F89988D20E030E040E8B2
:102570005FE30E94790388232CF481E090E09C8B38
:102580008B8B3FC06D897E898F89988D20E03FEFCE
:102590004FE757E40E94190318164CF5698D7A8DA0
:1025A0008B8D9C8D20E030E040E251E40E941F02C0
:1025B000DC01CB01BC01CD010E944900DC01CB0153
:1025C0009C8B8B8B0FC088EC90E09A8B898B8989D0
:1025D0009A890197F1F79A8B898B8B899C8901974E
:1025E0009C8B8B8B8B899C89009769F714C06D89B4
:1025F0007E898F89988D0E944900DC01CB019C8BDC
:102600008B8B8B899C89988B8F878F859889019775
:10261000F1F7988B8F8783E065E041E00E9418080E
:1026200080E090E0A0E0B0E48B879C87AD87BE8718
:102630006B857C858D859E8520E030E04AEF54E4F3
:102640000E941F02DC01CB018F839887A987BA877C
:102650006F81788589859A8520E030E040E85FE3E6
:102660000E94790388232CF481E090E09E838D837F
:102670003FC06F81788589859A8520E03FEF4FE7DD
:1026800057E40E94190318164CF56B857C858D85DF
:102690009E8520E030E040E251E40E941F02DC0110
:1026A000CB01BC01CD010E944900DC01CB019E831E
:1026B0008D830FC088EC90E09C838B838B819C8101
:1026C0000197F1F79C838B838D819E8101979E8377
:1026D0008D838D819E81009769F714C06F81788505
:1026E00089859A850E944900DC01CB019E838D83F8
:1026F0008D819E819A83898389819A810197F1F7DF
:102700009A838983AB960FB6F894DEBF0FBECDBF18
:10271000CF91DF910895DF93CF93CDB7DEB76D975B
:102720000FB6F894DEBF0FBECDBF8D8F83E065E09E
:1027300041E00E94180883E067E041E00E94180829
:1027400083E066E040E00E94180884E06D8D0E94FE
:102750000B0983E065E040E00E94180880E090E00B
:10276000A0EAB0E4898F9A8FAB8FBC8F698D7A8D88
:102770008B8D9C8D20E030E04AEF54E40E941F02D4
:10278000DC01CB018D8B9E8BAF8BB88F6D897E89E1
:102790008F89988D20E030E040E85FE30E94790364
:1027A00088232CF481E090E09C8B8B8B3FC06D895B
:1027B0007E898F89988D20E03FEF4FE757E40E9494
:1027C000190318164CF5698D7A8D8B8D9C8D20E040
:1027D00030E040E251E40E941F02DC01CB01BC0169
:1027E000CD010E944900DC01CB019C8B8B8B0FC07B
:1027F00088EC90E09A8B898B89899A890197F1F707
:102800009A8B898B8B899C8901979C8B8B8B8B896D
:102810009C89009769F714C06D897E898F89988D8E
:102820000E944900DC01CB019C8B8B8B8B899C899E
:10283000988B8F878F8598890197F1F7988B8F8771
:1028400083E065E041E00E94180880E090E0A0EAA3
:10285000B0E48B879C87AD87BE876B857C858D8533
:102860009E8520E030E04AEF54E40E941F02DC0124
:10287000CB018F839887A987BA876F8178858985EF
:102880009A8520E030E040E85FE30E9479038823E6
:102890002CF481E090E09E838D833FC06F8178852A
:1028A00089859A8520E03FEF4FE757E40E9419039E
:1028B00018164CF56B857C858D859E8520E030E073
:1028C00040E251E40E941F02DC01CB01BC01CD01BA
:1028D0000E944900DC01CB019E838D830FC088ECF0
:1028E00090E09C838B838B819C810197F1F79C8383
:1028F0008B838D819E8101979E838D838D819E81A7
:10290000009769F714C06F81788589859A850E9440
:102910004900DC01CB019E838D838D819E819A834A
:10292000898389819A810197F1F79A8389836D96CA
:102930000FB6F894DEBF0FBECDBFCF91DF910895E3
:10294000DF93CF93CDB7DEB761970FB6F894DEBFB4
:102950000FBECDBF998B888B1F8680C08F85282F97
:1029600030E088899989FC01E20FF31F80810E9481
:102970008B138F858F5F8F8780E090E0A0E8BFE3A7
:102980008B879C87AD87BE876B857C858D859E8573
:1029900020E030E04AEF54E40E941F02DC01CB014A
:1029A0008F839887A987BA876F81788589859A856B
:1029B00020E030E040E85FE30E94790388232CF4B4
:1029C00081E090E09E838D833FC06F81788589850B
:1029D0009A8520E03FEF4FE757E40E94190318164D
:1029E0004CF56B857C858D859E8520E030E040E24E
:1029F00051E40E941F02DC01CB01BC01CD010E9409
:102A00004900DC01CB019E838D830FC088EC90E0F0
:102A10009C838B838B819C810197F1F79C838B83B3
:102A20008D819E8101979E838D838D819E810097EC
:102A300069F714C06F81788589859A850E9449005D
:102A4000DC01CB019E838D838D819E819A83898356
:102A500089819A810197F1F79A8389838F85282F3D
:102A600030E088899989FC01E20FF31F8081882377
:102A700009F074CF61960FB6F894DEBF0FBECDBFDC
:102A8000CF91DF910895DF93CF93CDB7DEB7AA97AB
:102A90000FB6F894DEBF0FBECDBFE7E3F0E08FEFD7
:102AA000808381E060E00E940B0978940E944F17B8
:102AB00080E690E026E630E0B9010E94C9190E9444
:102AC0005D118091A8019091A901009709F089C03A
:102AD00081E00E94041280E80E9404128FE690E0D8
:102AE0000E94A01480EC0E9404128EE790E00E94E5
:102AF000A01481E090E09093A9018093A80180E068
:102B000090E0AAEFB4E48FA398A7A9A7BAA76FA1F2
:102B100078A589A59AA520E030E04AEF54E40E9408
:102B20001F02DC01CB018BA39CA3ADA3BEA36BA1B1
:102B30007CA18DA19EA120E030E040E85FE30E94EF
:102B4000790388232CF481E090E09AA389A33FC005
:102B50006BA17CA18DA19EA120E03FEF4FE757E440
:102B60000E94190318164CF56FA178A589A59AA59E
:102B700020E030E040E251E40E941F02DC01CB0182
:102B8000BC01CD010E944900DC01CB019AA389A3BD
:102B90000FC088EC90E098A38F8F8F8D98A101973C
:102BA000F1F798A38F8F89A19AA101979AA389A37E
:102BB00089A19AA1009769F714C06BA17CA18DA18E
:102BC0009EA10E944900DC01CB019AA389A389A19F
:102BD0009AA19E8F8D8F8D8D9E8D0197F1F79E8F7F
:102BE0008D8F8091AE019091AF010E948822882F35
:102BF00090E09093A7018093A6018091BC01882F5B
:102C000090E00E940024882F90E09093AD01809383
:102C1000AC018091AA019091AB018130910509F03E
:102C200050CF8091AC019091AD01863291057CF43A
:102C30008091A6019091A7018436910544F480917A
:102C4000A6019091A7018C3391050CF07AC081E028
:102C500061E00E940B0980E090E0AAEFB4E4898F64
:102C60009A8FAB8FBC8F698D7A8D8B8D9C8D20E078
:102C700030E04AEF54E40E941F02DC01CB018D8B4F
:102C80009E8BAF8BB88F6D897E898F89988D20E060
:102C900030E040E85FE30E94790388232CF481E070
:102CA00090E09C8B8B8B3FC06D897E898F89988D3E
:102CB00020E03FEF4FE757E40E94190318164CF548
:102CC000698D7A8D8B8D9C8D20E030E040E251E45F
:102CD0000E941F02DC01CB01BC01CD010E94490012
:102CE000DC01CB019C8B8B8B0FC088EC90E09A8B26
:102CF000898B89899A890197F1F79A8B898B8B89BE
:102D00009C8901979C8B8B8B8B899C89009769F799
:102D100014C06D897E898F89988D0E944900DC01DD
:102D2000CB019C8B8B8B8B899C89988B8F878F8514
:102D300098890197F1F7988B8F8781E060E00E9476
:102D40000B0981E00E94041280E80E9404128BE8C3
:102D500090E00E94A0148091A6019091A70120EB21
:102D600031E0B9014AE050E00E947B2780EB91E01E
:102D70000E94A01480EC0E94041280E990E00E945E
:102D8000A0148091AC019091AD0126EB31E0B90126
:102D90004AE050E00E947B2786EB91E00E94A0145D
:102DA00086E990E00E94A0141092AB011092AA0153
:102DB00080E090E4ACE9B5E48B879C87AD87BE8763
:102DC0006B857C858D859E8520E030E04AEF54E45C
:102DD0000E941F02DC01CB018F839887A987BA87E5
:102DE0006F81788589859A8520E030E040E85FE34F
:102DF0000E94790388232CF481E090E09E838D83E8
:102E00003FC06F81788589859A8520E03FEF4FE745
:102E100057E40E94190318164CF56B857C858D8547
:102E20009E8520E030E040E251E40E941F02DC0178
:102E3000CB01BC01CD010E944900DC01CB019E8386
:102E40008D830FC088EC90E09C838B838B819C8169
:102E50000197F1F79C838B838D819E8101979E83DF
:102E60008D838D819E81009769F714C06F8178856D
:102E700089859A850E944900DC01CB019E838D8360
:102E80008D819E819A83898389819A810197F1F747
:102E90009A8389831092A9011092A80112CE0F93F0
:102EA0001F93DF93CF93CDB7DEB7C654D0400FB694
:102EB000F894DEBF0FBECDBF8EE990E00E943626AB
:102EC000FE01ED5BFF4F80E090E0AAE7B4E4808371
:102ED0009183A283B3838E01015C1F4FFE01ED5BE2
:102EE000FF4F608171818281938120E030E04AEF61
:102EF00054E40E941F02DC01CB01F801808391831E
:102F0000A283B383FE01FF966081718182819381E8
:102F100020E030E040E85FE30E94790388232CF44E
:102F200081E090E09EAF8DAF46C0FE01FF966081CC
:102F300071818281938120E03FEF4FE757E40E9447
:102F40001903181664F5FE01ED5BFF4F6081718176
:102F50008281938120E030E040E251E40E941F0230
:102F6000DC01CB01BC01CD010E944900DC01CB0199
:102F70009EAF8DAF0FC088EC90E09CAF8BAF8BAD58
:102F80009CAD0197F1F79CAF8BAF8DAD9EAD0197D6
:102F90009EAF8DAF8DAD9EAD009769F716C0FE0157
:102FA000FF9660817181828193810E944900DC01DA
:102FB000CB019EAF8DAF8DAD9EAD9AAF89AF89AD80
:102FC0009AAD0197F1F79AAF89AF85EA90E00E9438
:102FD000362680E090E0AAE7B4E48DAB9EABAFABC1
:102FE000B8AF6DA97EA98FA998AD20E030E04AEF77
:102FF00054E40E941F02DC01CB0189AB9AABABAB5E
:10300000BCAB69A97AA98BA99CA920E030E040E873
:103010005FE30E94790388232CF481E090E098AB71
:103020008FA73FC069A97AA98BA99CA920E03FEF8F
:103030004FE757E40E94190318164CF56DA97EA9B5
:103040008FA998AD20E030E040E251E40E941F02D9
:10305000DC01CB01BC01CD010E944900DC01CB01A8
:1030600098AB8FA70FC088EC90E09EA78DA78DA589
:103070009EA50197F1F79EA78DA78FA598A9019707
:1030800098AB8FA78FA598A9009769F714C069A975
:103090007AA98BA99CA90E944900DC01CB0198ABBD
:1030A0008FA78FA598A99CA78BA78BA59CA50197F7
:1030B000F1F79CA78BA78AEA90E00E94362680E071
:1030C00090E0AAE7B4E48FA398A7A9A7BAA76FA135
:1030D00078A589A59AA520E030E04AEF54E40E9443
:1030E0001F02DC01CB018BA39CA3ADA3BEA36BA1EC
:1030F0007CA18DA19EA120E030E040E85FE30E942A
:10310000790388232CF481E090E09AA389A33FC03F
:103110006BA17CA18DA19EA120E03FEF4FE757E47A
:103120000E94190318164CF56FA178A589A59AA5D8
:1031300020E030E040E251E40E941F02DC01CB01BC
:10314000BC01CD010E944900DC01CB019AA389A3F7
:103150000FC088EC90E098A38F8F8F8D98A1019776
:10316000F1F798A38F8F89A19AA101979AA389A3B8
:1031700089A19AA1009769F714C06BA17CA18DA1C8
:103180009EA10E944900DC01CB019AA389A389A1D9
:103190009AA19E8F8D8F8D8D9E8D0197F1F79E8FB9
:1031A0008D8F88EB90E00E94362680E090E0AAE7C1
:1031B000B4E4898F9A8FAB8FBC8F698D7A8D8B8D9C
:1031C0009C8D20E030E04AEF54E40E941F02DC01B5
:1031D000CB018D8B9E8BAF8BB88F6D897E898F894C
:1031E000988D20E030E040E85FE30E947903882377
:1031F0002CF481E090E09C8B8B8B3FC06D897E89A5
:103200008F89988D20E03FEF4FE757E40E94190324
:1032100018164CF5698D7A8D8B8D9C8D20E030E0F1
:1032200040E251E40E941F02DC01CB01BC01CD0150
:103230000E944900DC01CB019C8B8B8B0FC088EC7A
:1032400090E09A8B898B89899A890197F1F79A8BFB
:10325000898B8B899C8901979C8B8B8B8B899C8913
:10326000009769F714C06D897E898F89988D0E94B7
:103270004900DC01CB019C8B8B8B8B899C89988BC3
:103280008F878F8598890197F1F7988B8F8787ECC7
:1032900090E00E94362680E090E0AAE7B4E48B87B5
:1032A0009C87AD87BE876B857C858D859E8520E05C
:1032B00030E04AEF54E40E941F02DC01CB018F830F
:1032C0009887A987BA876F81788589859A8520E054
:1032D00030E040E85FE30E94790388232CF481E02A
:1032E00090E09E838D833FC06F81788589859A8524
:1032F00020E03FEF4FE757E40E94190318164CF502
:103300006B857C858D859E8520E030E040E251E430
:103310000E941F02DC01CB01BC01CD010E944900CB
:10332000DC01CB019E838D830FC088EC90E09C83F1
:103330008B838B819C810197F1F79C838B838D819B
:103340009E8101979E838D838D819E81009769F771
:1033500014C06F81788589859A850E944900DC01B7
:10336000CB019E838D838D819E819A838983898100
:103370009A810197F1F79A838983CA5BDF4F0FB671
:10338000F894DEBF0FBECDBFCF91DF911F910F919B
:1033900008950F931F93DF93CF93CDB7DEB7CA5B2A
:1033A000D0400FB6F894DEBF0FBECDBFFE01E9548A
:1033B000FF4F91838083FE01E754FF4F7183608349
:1033C00085ED90E00E943626FE01E954FF4F808192
:1033D00091810E94362684EE90E00E943626FE01FE
:1033E000E754FF4F808191810E94362688EE90E05D
:1033F0000E943626FE01ED54FF4F80E090E0AAE7E0
:10340000B4E480839183A283B3838E0101551F4F5F
:10341000FE01ED54FF4F608171818281938120E034
:1034200030E04AEF54E40E941F02DC01CB01F801B6
:1034300080839183A283B383FE01E155FF4F6081B6
:1034400071818281938120E030E040E85FE30E9457
:103450007903882344F4FE01E355FF4F81E090E0B7
:103460009183808364C0FE01E155FF4F60817181CB
:103470008281938120E03FEF4FE757E40E941903D8
:1034800018160CF043C0FE01ED54FF4F60817181AE
:103490008281938120E030E040E251E40E941F02EB
:1034A000DC01CB018E0103551F4FBC01CD010E94F1
:1034B0004900DC01CB01F801918380831FC0FE012C
:1034C000E555FF4F88EC90E091838083FE01E55540
:1034D000FF4F808191810197F1F7FE01E555FF4F84
:1034E00091838083DE01A355BF4FFE01E355FF4F5B
:1034F00080819181019711969C938E93FE01E355F3
:10350000FF4F808191810097D1F627C08E0103552E
:103510001F4FFE01E155FF4F6081718182819381D0
:103520000E944900DC01CB01F80191838083DE0118
:10353000A755BF4FFE01E355FF4F808191818D93C9
:103540009C93FE01E755FF4F808191810197F1F730
:10355000FE01E755FF4F91838083FE01EB55FF4F3E
:1035600080E090E0AAE7B4E480839183A283B383F0
:103570008E010F551F4FFE01EB55FF4F608171818A
:103580008281938120E030E04AEF54E40E941F02E0
:10359000DC01CB01F80180839183A283B383FE0118
:1035A000EF55FF4F608171818281938120E030E08F
:1035B00040E85FE30E947903882344F4FE01E1566A
:1035C000FF4F81E090E09183808364C0FE01EF555E
:1035D000FF4F608171818281938120E03FEF4FE74F
:1035E00057E40E94190318160CF043C0FE01EB5576
:1035F000FF4F608171818281938120E030E040E261
:1036000051E40E941F02DC01CB018E0101561F4FC5
:10361000BC01CD010E944900DC01CB01F80191837E
:1036200080831FC0FE01E356FF4F88EC90E091833A
:103630008083FE01E356FF4F808191810197F1F76E
:10364000FE01E356FF4F91838083DE01A156BF4FF9
:10365000FE01E156FF4F80819181019711969C9365
:103660008E93FE01E156FF4F808191810097D1F644
:1036700027C08E0101561F4FFE01EF55FF4F60819D
:103680007181828193810E944900DC01CB01F801A4
:1036900091838083DE01A556BF4FFE01E156FF4FA7
:1036A000808191818D939C93FE01E556FF4F80812F
:1036B00091810197F1F7FE01E556FF4F91838083D9
:1036C000FE01E956FF4F80E090E0AAE7B4E4808372
:1036D0009183A283B3838E010D561F4FFE01E956DD
:1036E000FF4F608171818281938120E030E04AEF59
:1036F00054E40E941F02DC01CB01F8018083918316
:10370000A283B383FE01ED56FF4F608171818281F8
:10371000938120E030E040E85FE30E947903882352
:1037200044F4FE01EF56FF4F81E090E091838083E7
:1037300064C0FE01ED56FF4F6081718182819381EB
:1037400020E03FEF4FE757E40E94190318160CF0F2
:1037500043C0FE01E956FF4F6081718182819381F0
:1037600020E030E040E251E40E941F02DC01CB0186
:103770008E010F561F4FBC01CD010E944900DC0194
:10378000CB01F801918380831FC0FE01E157FF4FF9
:1037900088EC90E091838083FE01E157FF4F8081A8
:1037A00091810197F1F7FE01E157FF4F91838083EB
:1037B000DE01AF56BF4FFE01EF56FF4F8081918172
:1037C000019711969C938E93FE01EF56FF4F8081D7
:1037D00091810097D1F627C08E010F561F4FFE0131
:1037E000ED56FF4F60817181828193810E94490073
:1037F000DC01CB01F80191838083DE01A357BF4F29
:10380000FE01EF56FF4F808191818D939C93FE01C5
:10381000E357FF4F808191810197F1F7FE01E35754
:10382000FF4F91838083FE01E757FF4F80E090E0D8
:10383000AAE7B4E480839183A283B3838E010B57FC
:103840001F4FFE01E757FF4F608171818281938195
:1038500020E030E04AEF54E40E941F02DC01CB017B
:10386000F80180839183A283B383FE01EB57FF4F5E
:10387000608171818281938120E030E040E85FE3E4
:103880000E947903882344F4FE01ED57FF4F81E045
:1038900090E09183808364C0FE01EB57FF4F60810D
:1038A00071818281938120E03FEF4FE757E40E94CE
:1038B000190318160CF043C0FE01E757FF4F608153
:1038C00071818281938120E030E040E251E40E94E6
:1038D0001F02DC01CB018E010D571F4FBC01CD0132
:1038E0000E944900DC01CB01F801918380831FC055
:1038F000FE01EF57FF4F88EC90E091838083FE013B
:10390000EF57FF4F808191810197F1F7FE01EF574B
:10391000FF4F91838083DE01AD57BF4FFE01ED570E
:10392000FF4F80819181019711969C938E93FE01A8
:10393000ED57FF4F808191810097D1F627C08E010E
:103940000D571F4FFE01EB57FF4F60817181828140
:1039500093810E944900DC01CB01F80191838083AF
:10396000DE01A158BF4FFE01ED57FF4F80819181CD
:103970008D939C93FE01E158FF4F808191810197C7
:10398000F1F7FE01E158FF4F91838083FE01E55876
:10399000FF4F80E090E0AAE7B4E480839183A283A4
:1039A000B3838E0109581F4FFE01E558FF4F608118
:1039B00071818281938120E030E04AEF54E40E94DB
:1039C0001F02DC01CB01F80180839183A283B383C2
:1039D000FE01E958FF4F608171818281938120E06F
:1039E00030E040E85FE30E947903882344F4FE015D
:1039F000EB58FF4F81E090E09183808364C0FE012B
:103A0000E958FF4F608171818281938120E03FEF0F
:103A10004FE757E40E94190318160CF043C0FE014B
:103A2000E558FF4F608171818281938120E030E011
:103A300040E251E40E941F02DC01CB018E010B58D1
:103A40001F4FBC01CD010E944900DC01CB01F801F0
:103A5000918380831FC0FE01ED58FF4F88EC90E0FA
:103A600091838083FE01ED58FF4F80819181019702
:103A7000F1F7FE01ED58FF4F91838083DE01AB58D3
:103A8000BF4FFE01EB58FF4F808191810197119646
:103A90009C938E93FE01EB58FF4F8081918100979C
:103AA000D1F627C08E010B581F4FFE01E958FF4F7A
:103AB00060817181828193810E944900DC01CB0188
:103AC000F80191838083DE01AF58BF4FFE01EB58B0
:103AD000FF4F808191818D939C93FE01EF58FF4FA2
:103AE000808191810197F1F7FE01EF58FF4F91839B
:103AF0008083FE01E359FF4F80E090E0AAE7B4E441
:103B000080839183A283B3838E0107591F4FFE01E7
:103B1000E359FF4F608171818281938120E030E021
:103B20004AEF54E40E941F02DC01CB01F8018083BC
:103B30009183A283B383FE01E759FF4F60817181B6
:103B40008281938120E030E040E85FE30E947903C6
:103B5000882344F4FE01E959FF4F81E090E091830E
:103B6000808364C0FE01E759FF4F608171818281CB
:103B7000938120E03FEF4FE757E40E9419031816A6
:103B80000CF043C0FE01E359FF4F608171818281D7
:103B9000938120E030E040E251E40E941F02DC010A
:103BA000CB018E0109591F4FBC01CD010E94490074
:103BB000DC01CB01F801918380831FC0FE01EB592A
:103BC000FF4F88EC90E091838083FE01EB59FF4F1B
:103BD000808191810197F1F7FE01EB59FF4F9183AD
:103BE0008083DE01A959BF4FFE01E959FF4F808153
:103BF0009181019711969C938E93FE01E959FF4F95
:103C0000808191810097D1F627C08E0109591F4FFD
:103C1000FE01E759FF4F60817181828193810E948B
:103C20004900DC01CB01F80191838083DE01AD59AD
:103C3000BF4FFE01E959FF4F808191818D939C9385
:103C4000FE01ED59FF4F808191810197F1F7FE014F
:103C5000ED59FF4F91838083FE01E15AFF4F80E0D1
:103C600090E0AAE7B4E480839183A283B3838E01BA
:103C7000055A1F4FFE01E15AFF4F60817181828119
:103C8000938120E030E04AEF54E40E941F02DC01FF
:103C9000CB01F80180839183A283B383FE01E55AAF
:103CA000FF4F608171818281938120E030E040E8A4
:103CB0005FE30E947903882344F4FE01E75AFF4F33
:103CC00081E090E09183808364C0FE01E55AFF4F5C
:103CD000608171818281938120E03FEF4FE757E45B
:103CE0000E94190318160CF043C0FE01E15AFF4F61
:103CF000608171818281938120E030E040E251E473
:103D00000E941F02DC01CB018E01075A1F4FBC012C
:103D1000CD010E944900DC01CB01F8019183808331
:103D20001FC0FE01E95AFF4F88EC90E09183808329
:103D3000FE01E95AFF4F808191810197F1F7FE0161
:103D4000E95AFF4F91838083DE01A75ABF4FFE01DE
:103D5000E75AFF4F80819181019711969C938E9332
:103D6000FE01E75AFF4F808191810097D1F627C06D
:103D70008E01075A1F4FFE01E55AFF4F6081718186
:103D8000828193810E944900DC01CB01F80191837B
:103D90008083DE01AB5ABF4FFE01E75AFF4F80819F
:103DA00091818D939C93FE01EB5AFF4F808191810D
:103DB0000197F1F7FE01EB5AFF4F91838083FE01DB
:103DC000EF5AFF4F80E090E0AAE7B4E4808391834C
:103DD000A283B3838E01035B1F4FFE01EF5AFF4F97
:103DE000608171818281938120E030E04AEF54E468
:103DF0000E941F02DC01CB01F80180839183A28322
:103E0000B383FE01E35BFF4F608171818281938107
:103E100020E030E040E85FE30E947903882344F427
:103E2000FE01E55BFF4F81E090E09183808364C0F9
:103E3000FE01E35BFF4F608171818281938120E00D
:103E40003FEF4FE757E40E94190318160CF043C0E8
:103E5000FE01EF5AFF4F608171818281938120E0E2
:103E600030E040E251E40E941F02DC01CB018E01F0
:103E7000055B1F4FBC01CD010E944900DC01CB0155
:103E8000F801918380831FC0FE01E75BFF4F88EC40
:103E900090E091838083FE01E75BFF4F80819181F9
:103EA0000197F1F7FE01E75BFF4F91838083DE010D
:103EB000A55BBF4FFE01E55BFF4F808191810197BC
:103EC00011969C938E93FE01E55BFF4F808191815B
:103ED0000097D1F627C08E01055B1F4FFE01E35B03
:103EE000FF4F60817181828193810E944900DC01D2
:103EF000CB01F80191838083DE01A95BBF4FFE01F6
:103F0000E55BFF4F808191818D939C93FE01E95B7E
:103F1000FF4F808191810197F1F7FE01E95BFF4F2F
:103F200091838083FE01ED5BFF4F80E090E0AAE784
:103F3000B4E480839183A283B3838E01015C1F4F1D
:103F4000FE01ED5BFF4F608171818281938120E0F2
:103F500030E04AEF54E40E941F02DC01CB01F8017B
:103F600080839183A283B383FE01FF966081718178
:103F70008281938120E030E040E85FE30E94790392
:103F800088232CF481E090E09EAF8DAF46C0FE0107
:103F9000FF96608171818281938120E03FEF4FE73E
:103FA00057E40E941903181664F5FE01ED5BFF4FFC
:103FB000608171818281938120E030E040E251E4B0
:103FC0000E941F02DC01CB01BC01CD010E9449000F
:103FD000DC01CB019EAF8DAF0FC088EC90E09CAFB1
:103FE0008BAF8BAD9CAD0197F1F79CAF8BAF8DADD7
:103FF0009EAD01979EAF8DAF8DAD9EAD009769F7D9
:1040000016C0FE01FF9660817181828193810E94BA
:104010004900DC01CB019EAF8DAF8DAD9EAD9AAF57
:1040200089AF89AD9AAD0197F1F79AAF89AF80E07A
:1040300090E0AAE7B4E48DAB9EABAFABB8AF6DA98F
:104040007EA98FA998AD20E030E04AEF54E40E94A9
:104050001F02DC01CB0189AB9AABABABBCAB69A94E
:104060007AA98BA99CA920E030E040E85FE30E9498
:10407000790388232CF481E090E098AB8FA73FC0B0
:1040800069A97AA98BA99CA920E03FEF4FE757E4E3
:104090000E94190318164CF56DA97EA98FA998AD39
:1040A00020E030E040E251E40E941F02DC01CB013D
:1040B000BC01CD010E944900DC01CB0198AB8FA768
:1040C0000FC088EC90E09EA78DA78DA59EA50197B7
:1040D000F1F79EA78DA78FA598A9019798AB8FA7F9
:1040E0008FA598A9009769F714C069A97AA98BA927
:1040F0009CA90E944900DC01CB0198AB8FA78FA53A
:1041000098A99CA78BA78BA59CA50197F1F79CA7C5
:104110008BA780E090E0AAE7B4E48FA398A7A9A7B3
:10412000BAA76FA178A589A59AA520E030E04AEF4B
:1041300054E40E941F02DC01CB018BA39CA3ADA31E
:10414000BEA36BA17CA18DA19EA120E030E040E840
:104150005FE30E94790388232CF481E090E09AA326
:1041600089A33FC06BA17CA18DA19EA120E03FEF60
:104170004FE757E40E94190318164CF56FA178A574
:1041800089A59AA520E030E040E251E40E941F0298
:10419000DC01CB01BC01CD010E944900DC01CB0157
:1041A0009AA389A30FC088EC90E098A38F8F8F8D7E
:1041B00098A10197F1F798A38F8F89A19AA10197F0
:1041C0009AA389A389A19AA1009769F714C06BA14A
:1041D0007CA18DA19EA10E944900DC01CB019AA384
:1041E00089A389A19AA19E8F8D8F8D8D9E8D019718
:1041F000F1F79E8F8D8F80E090E0AAE7B4E4898F7D
:104200009A8FAB8FBC8F698D7A8D8B8D9C8D20E0C2
:1042100030E04AEF54E40E941F02DC01CB018D8B99
:104220009E8BAF8BB88F6D897E898F89988D20E0AA
:1042300030E040E85FE30E94790388232CF481E0BA
:1042400090E09C8B8B8B3FC06D897E898F89988D88
:1042500020E03FEF4FE757E40E94190318164CF592
:10426000698D7A8D8B8D9C8D20E030E040E251E4A9
:104270000E941F02DC01CB01BC01CD010E9449005C
:10428000DC01CB019C8B8B8B0FC088EC90E09A8B70
:10429000898B89899A890197F1F79A8B898B8B8908
:1042A0009C8901979C8B8B8B8B899C89009769F7E4
:1042B00014C06D897E898F89988D0E944900DC0128
:1042C000CB019C8B8B8B8B899C89988B8F878F855F
:1042D00098890197F1F7988B8F8780E090E0AAE7A3
:1042E000B4E48B879C87AD87BE876B857C858D8585
:1042F0009E8520E030E04AEF54E40E941F02DC017A
:10430000CB018F839887A987BA876F817885898544
:104310009A8520E030E040E85FE30E94790388233B
:104320002CF481E090E09E838D833FC06F8178857F
:1043300089859A8520E03FEF4FE757E40E941903F3
:1043400018164CF56B857C858D859E8520E030E0C8
:1043500040E251E40E941F02DC01CB01BC01CD010F
:104360000E944900DC01CB019E838D830FC088EC45
:1043700090E09C838B838B819C810197F1F79C83D8
:104380008B838D819E8101979E838D838D819E81FC
:10439000009769F714C06F81788589859A850E9496
:1043A0004900DC01CB019E838D838D819E819A83A0
:1043B000898389819A810197F1F79A838983C65409
:1043C000DF4F0FB6F894DEBF0FBECDBFCF91DF91A8
:1043D0001F910F910895DF93CF93CDB7DEB762970A
:1043E0000FB6F894DEBF0FBECDBF988B8F877A8B48
:1043F000698B8CEE90E00E9436268F8598890E940A
:10440000362680E091E00E94362689899A890E94AA
:10441000362683E091E00E94362680E090E0AAE70D
:10442000B4E48B879C87AD87BE876B857C858D8543
:104430009E8520E030E04AEF54E40E941F02DC0138
:10444000CB018F839887A987BA876F817885898503
:104450009A8520E030E040E85FE30E9479038823FA
:104460002CF481E090E09E838D833FC06F8178853E
:1044700089859A8520E03FEF4FE757E40E941903B2
:1044800018164CF56B857C858D859E8520E030E087
:1044900040E251E40E941F02DC01CB01BC01CD01CE
:1044A0000E944900DC01CB019E838D830FC088EC04
:1044B00090E09C838B838B819C810197F1F79C8397
:1044C0008B838D819E8101979E838D838D819E81BB
:1044D000009769F714C06F81788589859A850E9455
:1044E0004900DC01CB019E838D838D819E819A835F
:1044F000898389819A810197F1F79A8389836296EA
:104500000FB6F894DEBF0FBECDBFCF91DF910895F7
:104510000F931F93DF93CF93CDB7DEB7A0970FB65E
:10452000F894DEBF0FBECDBF98A38F8F1E8E1D8E59
:1045300086E091E026E131E0B9010E94EB2189E1BA
:1045400091E00E94362680E090E0A8ECB2E4898FEA
:104550009A8FAB8FBC8F698D7A8D8B8D9C8D20E06F
:1045600030E04AEF54E40E941F02DC01CB018D8B46
:104570009E8BAF8BB88F6D897E898F89988D20E057
:1045800030E040E85FE30E94790388232CF481E067
:1045900090E09C8B8B8B3FC06D897E898F89988D35
:1045A00020E03FEF4FE757E40E94190318164CF53F
:1045B000698D7A8D8B8D9C8D20E030E040E251E456
:1045C0000E941F02DC01CB01BC01CD010E94490009
:1045D000DC01CB019C8B8B8B0FC088EC90E09A8B1D
:1045E000898B89899A890197F1F79A8B898B8B89B5
:1045F0009C8901979C8B8B8B8B899C89009769F791
:1046000014C06D897E898F89988D0E944900DC01D4
:10461000CB019C8B8B8B8B899C89988B8F878F850B
:1046200098890197F1F7988B8F8780E090E0A8EC4C
:10463000B2E48B879C87AD87BE876B857C858D8533
:104640009E8520E030E04AEF54E40E941F02DC0126
:10465000CB018F839887A987BA876F8178858985F1
:104660009A8520E030E040E85FE30E9479038823E8
:104670002CF481E090E09E838D833FC06F8178852C
:1046800089859A8520E03FEF4FE757E40E941903A0
:1046900018164CF56B857C858D859E8520E030E075
:1046A00040E251E40E941F02DC01CB01BC01CD01BC
:1046B0000E944900DC01CB019E838D830FC088ECF2
:1046C00090E09C838B838B819C810197F1F79C8385
:1046D0008B838D819E8101979E838D838D819E81A9
:1046E000009769F714C06F81788589859A850E9443
:1046F0004900DC01CB019E838D838D819E819A834D
:10470000898389819A810197F1F79A83898389E264
:1047100091E00E9436261D8E0FC08D8D282F30E02F
:104720008F8D98A18C01020F131F0E94CC25F801D8
:1047300080838D8D8F5F8D8F8D8D8D3270F38F8DFA
:1047400098A1FC01B6968081882F90E09C01220FF1
:10475000331FC901880F991F880F991F820F931F5C
:10476000282F8F8D98A1FC01B7968081820F8051F0
:104770008E8F8F8D98A1FC01B89680818033A0F137
:104780008F8D98A1FC01B89680818A3368F58F8D52
:1047900098A1FC01B6968081282F30E084E690E055
:1047A000AC01249FC001259F900D349F900D1124D2
:1047B000482F8F8D98A1FC01B7968081882F90E0BB
:1047C0009C01220F331FC901880F991F880F991F61
:1047D000820F931F242F280F8F8D98A1FC01B8966C
:1047E0008081820F805D8E8F8E8DA0960FB6F8949B
:1047F000DEBF0FBECDBFCF91DF911F910F91089506
:104800000F931F93DF93CF93CDB7DEB7A0970FB66B
:10481000F894DEBF0FBECDBF98A38F8F1E8E1D8E66
:1048200086E091E026E131E0B9010E94EB2189E1C7
:1048300091E00E94362680E090E0A8ECB2E4898FF7
:104840009A8FAB8FBC8F698D7A8D8B8D9C8D20E07C
:1048500030E04AEF54E40E941F02DC01CB018D8B53
:104860009E8BAF8BB88F6D897E898F89988D20E064
:1048700030E040E85FE30E94790388232CF481E074
:1048800090E09C8B8B8B3FC06D897E898F89988D42
:1048900020E03FEF4FE757E40E94190318164CF54C
:1048A000698D7A8D8B8D9C8D20E030E040E251E463
:1048B0000E941F02DC01CB01BC01CD010E94490016
:1048C000DC01CB019C8B8B8B0FC088EC90E09A8B2A
:1048D000898B89899A890197F1F79A8B898B8B89C2
:1048E0009C8901979C8B8B8B8B899C89009769F79E
:1048F00014C06D897E898F89988D0E944900DC01E2
:10490000CB019C8B8B8B8B899C89988B8F878F8518
:1049100098890197F1F7988B8F8780E090E0A8EC59
:10492000B2E48B879C87AD87BE876B857C858D8540
:104930009E8520E030E04AEF54E40E941F02DC0133
:10494000CB018F839887A987BA876F8178858985FE
:104950009A8520E030E040E85FE30E9479038823F5
:104960002CF481E090E09E838D833FC06F81788539
:1049700089859A8520E03FEF4FE757E40E941903AD
:1049800018164CF56B857C858D859E8520E030E082
:1049900040E251E40E941F02DC01CB01BC01CD01C9
:1049A0000E944900DC01CB019E838D830FC088ECFF
:1049B00090E09C838B838B819C810197F1F79C8392
:1049C0008B838D819E8101979E838D838D819E81B6
:1049D000009769F714C06F81788589859A850E9450
:1049E0004900DC01CB019E838D838D819E819A835A
:1049F000898389819A810197F1F79A83898381E676
:104A000091E00E9436261D8E0FC08D8D282F30E03C
:104A10008F8D98A18C01020F131F0E94CC25F801E5
:104A200080838D8D8F5F8D8F8D8D8D3270F38F8D07
:104A300098A1FC01B6968081882F90E09C01220FFE
:104A4000331FC901880F991F880F991F820F931F69
:104A5000282F8F8D98A1FC01B7968081820F8051FD
:104A60008E8F8F8D98A1FC01B89680818033A0F144
:104A70008F8D98A1FC01B89680818A3368F58F8D5F
:104A800098A1FC01B6968081282F30E084E690E062
:104A9000AC01249FC001259F900D349F900D1124DF
:104AA000482F8F8D98A1FC01B7968081882F90E0C8
:104AB0009C01220F331FC901880F991F880F991F6E
:104AC000820F931F242F280F8F8D98A1FC01B89679
:104AD0008081820F805D8E8F81E090E09093AB01AA
:104AE0008093AA018E8DA0960FB6F894DEBF0FBEFC
:104AF000CDBFCF91DF911F910F910895DF93CF9399
:104B00000F92CDB7DEB71982AAE2B0E0EAE2F0E098
:104B100080818B7F8C938981866889838981877F57
:104B2000898389818F7D898389818F7E898389812A
:104B30008F7B8983AAE2B0E0EAE2F0E080818F77A0
:104B40008C93AAE2B0E0EAE2F0E080818F7B8C9364
:104B5000AAE2B0E0EAE2F0E080818F7D8C93AAE2E5
:104B6000B0E0EAE2F0E0808180618C93AAE2B0E0FC
:104B7000EAE2F0E0808188608C93E9E2F0E083E390
:104B80008083E0E4F0E01082E0E4F0E0898180835B
:104B90000F90CF91DF910895DF93CF93CDB7DEB71C
:104BA000EBE2F0E080818823DCF7ECE2F0E080814A
:104BB000CF91DF910895DF93CF93CDB7DEB7ECE2CD
:104BC000F0E08081CF91DF910895DF93CF930F9232
:104BD000CDB7DEB78983EBE2F0E0808182958695E0
:104BE0008770882F90E0817090700097A1F3ECE2BD
:104BF000F0E0898180830F90CF91DF9108950F932A
:104C00001F93DF93CF9300D000D0CDB7DEB79B8347
:104C10008A836C8319820FC08981282F30E08A81B2
:104C20009B818C01020F131F0E94CC25F801808309
:104C300089818F5F898399818C81981768F30F90A0
:104C40000F900F900F90CF91DF911F910F910895CA
:104C5000DF93CF930F92CDB7DEB78983ECE2F0E01C
:104C6000898180830F90CF91DF910895DF93CF9357
:104C700000D00F92CDB7DEB79B838A8319820EC016
:104C80008981282F30E08A819B81FC01E20FF31F8C
:104C900080810E94E52589818F5F89838981282F02
:104CA00030E08A819B81FC01E20FF31F8081882321
:104CB00039F70F900F900F90CF91DF910895DF9308
:104CC000CF93CDB7DEB72D970FB6F894DEBF0FBEEA
:104CD000CDBF98878F83CE0102969A878987E1EAB4
:104CE000F1E0FC87EB87F5E0FD87EB85FC85008034
:104CF0008B859C8501969C878B87E985FA85008248
:104D000089859A8501969A8789879D8591509D8787
:104D1000ED85EE2351F784E089838F819885009794
:104D2000D9F58981E82FF0E08F8198852AE030E07D
:104D3000B9010E943027282FCE010296E80FF91FF3
:104D400020838F8198852AE030E0B9010E943027C6
:104D5000CB0198878F838981815089831DC0898188
:104D6000E82FF0E08F8198852AE030E0B9010E94B9
:104D70003027282FCE010296E80FF91F20838F815C
:104D800098852AE030E0B9010E943027CB0198874E
:104D90008F838981815089838F8198850097F9F667
:104DA00019821AC08981282F30E0CE010296FC01B9
:104DB000E20FF31F80818A3060F48981282F30E070
:104DC000CE010296FC01E20FF31F8081805D0E94FC
:104DD000E52589818F5F89838981853018F32D9638
:104DE0000FB6F894DEBF0FBECDBFCF91DF9108950F
:104DF000DF93CF93CDB7DEB7AAE2B0E0EAE2F0E00E
:104E0000808180618C93CF91DF910895DF93CF9360
:104E1000CDB7DEB7AAE2B0E0EAE2F0E080818F7EB3
:104E20008C93CF91DF910895DF93CF93CDB7DEB709
:104E3000AAE2B0E0EAE2F0E0808188608C93CF9152
:104E4000DF910895DF93CF93CDB7DEB7AAE2B0E04C
:104E5000EAE2F0E08081877F8C93CF91DF91089523
:104E6000AA1BBB1B51E107C0AA1FBB1FA617B70790
:104E700010F0A61BB70B881F991F5A95A9F78095AC
:104E80009095BC01CD0108952F923F924F925F9271
:104E90006F927F928F929F92AF92BF92CF92DF924A
:104EA000EF92FF920F931F93CF93DF93CDB7DEB7AF
:104EB000CA1BDB0B0FB6F894DEBF0FBECDBF099443
:104EC0002A88398848885F846E847D848C849B849A
:104ED000AA84B984C884DF80EE80FD800C811B81A8
:104EE000AA81B981CE0FD11D0FB6F894DEBF0FBED7
:104EF000CDBFED010895FB019F01E8944230C4F05D
:104F00004532B4F44A3029F497FB1EF4909581950C
:104F10009F4F642F77270E943027805D8A330CF0E3
:104F2000895D8193CB010097A1F716F45DE251935F
:104F30001082C9010C949C27DC01FC01672F719140
:104F40007723E1F7329704C07C916D93708362916F
:0C4F5000AE17BF07C8F30895F894FFCF18
:104F5C007361796564003131313132323232002083
:104F6C007075742075722066696E676572002070AA
:104F7C006C6561736520776169740042706D3D00EA
:104F8C0074656D703D002046696E6973680041540C
:104F9C0045300D0A0041540D0A0041542B43574D26
:104FAC004F44453D310D0A0041542B4349504D4F60
:104FBC0044453D300D0A0041542B4349504D555842
:104FCC003D300D0A0041542B43574A41505F435525
:104FDC00523D2200222C2200220D0A0041542B4368
:104FEC00495053544152543D22544350222C2200D8
:104FFC00222C000D0A003136322E3235332E31354B
:10500C00352E3232360038300041542B4349505340
:10501C00454E443D35350D0A00474554206874749F
:10502C00703A2F2F65656365323032332E667265A8
:10503C00657661722E636F6D2F5265636965766557
:10504C007248422E7068703F6C696E653D300D0A77
:10505C000047455420687474703A2F2F656563655A
:10506C00323032332E667265657661722E636F6DE7
:10507C002F526563696576657250522E7068703F69
:10508C006C696E653D300D0A0000000000000000E8
:06509C00000A0A0A0A0ADC
:00000001FF
